{
  "contractName": "Flask",
  "abi": [
    {
      "inputs": [],
      "payable": false,
      "stateMutability": "nonpayable",
      "type": "constructor"
    },
    {
      "constant": true,
      "inputs": [],
      "name": "name",
      "outputs": [
        {
          "internalType": "string",
          "name": "",
          "type": "string"
        }
      ],
      "payable": false,
      "stateMutability": "view",
      "type": "function"
    },
    {
      "constant": true,
      "inputs": [],
      "name": "postCount",
      "outputs": [
        {
          "internalType": "uint256",
          "name": "",
          "type": "uint256"
        }
      ],
      "payable": false,
      "stateMutability": "view",
      "type": "function"
    },
    {
      "constant": true,
      "inputs": [
        {
          "internalType": "uint256",
          "name": "",
          "type": "uint256"
        }
      ],
      "name": "posts",
      "outputs": [
        {
          "internalType": "uint256",
          "name": "id",
          "type": "uint256"
        },
        {
          "internalType": "string",
          "name": "hash",
          "type": "string"
        },
        {
          "internalType": "string",
          "name": "text",
          "type": "string"
        },
        {
          "internalType": "uint256",
          "name": "timestamp",
          "type": "uint256"
        },
        {
          "internalType": "uint256",
          "name": "tipAmount",
          "type": "uint256"
        },
        {
          "internalType": "address payable",
          "name": "author",
          "type": "address"
        }
      ],
      "payable": false,
      "stateMutability": "view",
      "type": "function"
    },
    {
      "constant": true,
      "inputs": [],
      "name": "userCount",
      "outputs": [
        {
          "internalType": "uint256",
          "name": "",
          "type": "uint256"
        }
      ],
      "payable": false,
      "stateMutability": "view",
      "type": "function"
    },
    {
      "constant": true,
      "inputs": [
        {
          "internalType": "address",
          "name": "",
          "type": "address"
        }
      ],
      "name": "users",
      "outputs": [
        {
          "internalType": "uint256",
          "name": "id",
          "type": "uint256"
        },
        {
          "internalType": "string",
          "name": "hash",
          "type": "string"
        },
        {
          "internalType": "string",
          "name": "name",
          "type": "string"
        },
        {
          "internalType": "string",
          "name": "bio",
          "type": "string"
        },
        {
          "internalType": "uint256",
          "name": "birthday",
          "type": "uint256"
        },
        {
          "internalType": "uint256",
          "name": "timestamp",
          "type": "uint256"
        },
        {
          "internalType": "address payable",
          "name": "author",
          "type": "address"
        }
      ],
      "payable": false,
      "stateMutability": "view",
      "type": "function"
    },
    {
      "constant": false,
      "inputs": [
        {
          "internalType": "string",
          "name": "_mediaHash",
          "type": "string"
        },
        {
          "internalType": "string",
          "name": "_text",
          "type": "string"
        },
        {
          "internalType": "uint256",
          "name": "_timestamp",
          "type": "uint256"
        }
      ],
      "name": "uploadPost",
      "outputs": [],
      "payable": false,
      "stateMutability": "nonpayable",
      "type": "function"
    },
    {
      "constant": false,
      "inputs": [
        {
          "internalType": "uint256",
          "name": "_id",
          "type": "uint256"
        }
      ],
      "name": "tipImageOwner",
      "outputs": [],
      "payable": true,
      "stateMutability": "payable",
      "type": "function"
    },
    {
      "constant": false,
      "inputs": [
        {
          "internalType": "string",
          "name": "_mediaHash",
          "type": "string"
        },
        {
          "internalType": "string",
          "name": "_name",
          "type": "string"
        },
        {
          "internalType": "string",
          "name": "_bio",
          "type": "string"
        },
        {
          "internalType": "uint256",
          "name": "_birthday",
          "type": "uint256"
        },
        {
          "internalType": "uint256",
          "name": "_timestamp",
          "type": "uint256"
        }
      ],
      "name": "createUser",
      "outputs": [],
      "payable": false,
      "stateMutability": "nonpayable",
      "type": "function"
    },
    {
      "constant": true,
      "inputs": [
        {
          "internalType": "address",
          "name": "_id",
          "type": "address"
        }
      ],
      "name": "getUserPosts",
      "outputs": [
        {
          "internalType": "uint256[]",
          "name": "",
          "type": "uint256[]"
        }
      ],
      "payable": false,
      "stateMutability": "view",
      "type": "function"
    }
  ],
  "bytecode": "0x6080604052600060015560006002553480156200001b57600080fd5b506040518060400160405280600581526020017f466c61736b000000000000000000000000000000000000000000000000000000815250600090805190602001906200006992919062000070565b506200011f565b828054600181600116156101000203166002900490600052602060002090601f016020900481019282601f10620000b357805160ff1916838001178555620000e4565b82800160010185558215620000e4579182015b82811115620000e3578251825591602001919060010190620000c6565b5b509050620000f39190620000f7565b5090565b6200011c91905b8082111562000118576000816000905550600101620000fe565b5090565b90565b611652806200012f6000396000f3fe6080604052600436106100865760003560e01c8063510ae7b211610059578063510ae7b2146102d957806378817346146104e35780638567ade81461064c5780639a2194a91461067a578063a87430ba1461072057610086565b806306fdde031461008b57806307973ccf1461011b5780630b1e7f831461014657806317906c2e146102ae575b600080fd5b34801561009757600080fd5b506100a061090a565b6040518080602001828103825283818151815260200191508051906020019080838360005b838110156100e05780820151818401526020810190506100c5565b50505050905090810190601f16801561010d5780820380516001836020036101000a031916815260200191505b509250505060405180910390f35b34801561012757600080fd5b506101306109a8565b6040518082815260200191505060405180910390f35b34801561015257600080fd5b5061017f6004803603602081101561016957600080fd5b81019080803590602001909291905050506109ae565b6040518087815260200180602001806020018681526020018581526020018473ffffffffffffffffffffffffffffffffffffffff1673ffffffffffffffffffffffffffffffffffffffff168152602001838103835288818151815260200191508051906020019080838360005b838110156102075780820151818401526020810190506101ec565b50505050905090810190601f1680156102345780820380516001836020036101000a031916815260200191505b50838103825287818151815260200191508051906020019080838360005b8381101561026d578082015181840152602081019050610252565b50505050905090810190601f16801561029a5780820380516001836020036101000a031916815260200191505b509850505050505050505060405180910390f35b3480156102ba57600080fd5b506102c3610b3a565b6040518082815260200191505060405180910390f35b3480156102e557600080fd5b506104e1600480360360a08110156102fc57600080fd5b810190808035906020019064010000000081111561031957600080fd5b82018360208201111561032b57600080fd5b8035906020019184600183028401116401000000008311171561034d57600080fd5b91908080601f016020809104026020016040519081016040528093929190818152602001838380828437600081840152601f19601f820116905080830192505050505050509192919290803590602001906401000000008111156103b057600080fd5b8201836020820111156103c257600080fd5b803590602001918460018302840111640100000000831117156103e457600080fd5b91908080601f016020809104026020016040519081016040528093929190818152602001838380828437600081840152601f19601f8201169050808301925050505050505091929192908035906020019064010000000081111561044757600080fd5b82018360208201111561045957600080fd5b8035906020019184600183028401116401000000008311171561047b57600080fd5b91908080601f016020809104026020016040519081016040528093929190818152602001838380828437600081840152601f19601f8201169050808301925050505050505091929192908035906020019092919080359060200190929190505050610b40565b005b3480156104ef57600080fd5b5061064a6004803603606081101561050657600080fd5b810190808035906020019064010000000081111561052357600080fd5b82018360208201111561053557600080fd5b8035906020019184600183028401116401000000008311171561055757600080fd5b91908080601f016020809104026020016040519081016040528093929190818152602001838380828437600081840152601f19601f820116905080830192505050505050509192919290803590602001906401000000008111156105ba57600080fd5b8201836020820111156105cc57600080fd5b803590602001918460018302840111640100000000831117156105ee57600080fd5b91908080601f016020809104026020016040519081016040528093929190818152602001838380828437600081840152601f19601f82011690508083019250505050505050919291929080359060200190929190505050610d2d565b005b6106786004803603602081101561066257600080fd5b8101908080359060200190929190505050610f05565b005b34801561068657600080fd5b506106c96004803603602081101561069d57600080fd5b81019080803573ffffffffffffffffffffffffffffffffffffffff16906020019092919050505061121b565b6040518080602001828103825283818151815260200191508051906020019060200280838360005b8381101561070c5780820151818401526020810190506106f1565b505050509050019250505060405180910390f35b34801561072c57600080fd5b5061076f6004803603602081101561074357600080fd5b81019080803573ffffffffffffffffffffffffffffffffffffffff1690602001909291905050506112b5565b604051808881526020018060200180602001806020018781526020018681526020018573ffffffffffffffffffffffffffffffffffffffff1673ffffffffffffffffffffffffffffffffffffffff16815260200184810384528a818151815260200191508051906020019080838360005b838110156107fb5780820151818401526020810190506107e0565b50505050905090810190601f1680156108285780820380516001836020036101000a031916815260200191505b50848103835289818151815260200191508051906020019080838360005b83811015610861578082015181840152602081019050610846565b50505050905090810190601f16801561088e5780820380516001836020036101000a031916815260200191505b50848103825288818151815260200191508051906020019080838360005b838110156108c75780820151818401526020810190506108ac565b50505050905090810190601f1680156108f45780820380516001836020036101000a031916815260200191505b509a505050505050505050505060405180910390f35b60008054600181600116156101000203166002900480601f0160208091040260200160405190810160405280929190818152602001828054600181600116156101000203166002900480156109a05780601f10610975576101008083540402835291602001916109a0565b820191906000526020600020905b81548152906001019060200180831161098357829003601f168201915b505050505081565b60025481565b6003602052806000526040600020600091509050806000015490806001018054600181600116156101000203166002900480601f016020809104026020016040519081016040528092919081815260200182805460018160011615610100020316600290048015610a605780601f10610a3557610100808354040283529160200191610a60565b820191906000526020600020905b815481529060010190602001808311610a4357829003601f168201915b505050505090806002018054600181600116156101000203166002900480601f016020809104026020016040519081016040528092919081815260200182805460018160011615610100020316600290048015610afe5780601f10610ad357610100808354040283529160200191610afe565b820191906000526020600020905b815481529060010190602001808311610ae157829003601f168201915b5050505050908060030154908060040154908060050160009054906101000a900473ffffffffffffffffffffffffffffffffffffffff16905086565b60015481565b6000855111610b4e57600080fd5b6000845111610b5c57600080fd5b6000835111610b6a57600080fd5b600073ffffffffffffffffffffffffffffffffffffffff163373ffffffffffffffffffffffffffffffffffffffff161415610ba457600080fd5b600260008154809291906001019190505550606060405180610100016040528060025481526020018781526020018681526020018581526020018481526020018381526020013373ffffffffffffffffffffffffffffffffffffffff16815260200182815250600460003373ffffffffffffffffffffffffffffffffffffffff1673ffffffffffffffffffffffffffffffffffffffff168152602001908152602001600020600082015181600001556020820151816001019080519060200190610c6f9291906114df565b506040820151816002019080519060200190610c8c9291906114df565b506060820151816003019080519060200190610ca99291906114df565b506080820151816004015560a0820151816005015560c08201518160060160006101000a81548173ffffffffffffffffffffffffffffffffffffffff021916908373ffffffffffffffffffffffffffffffffffffffff16021790555060e0820151816007019080519060200190610d2192919061155f565b50905050505050505050565b6000835111610d3b57600080fd5b6000825111610d4957600080fd5b600073ffffffffffffffffffffffffffffffffffffffff163373ffffffffffffffffffffffffffffffffffffffff161415610d8357600080fd5b6001600081548092919060010191905055506040518060c001604052806001548152602001848152602001838152602001828152602001600081526020013373ffffffffffffffffffffffffffffffffffffffff16815250600360006001548152602001908152602001600020600082015181600001556020820151816001019080519060200190610e169291906114df565b506040820151816002019080519060200190610e339291906114df565b50606082015181600301556080820151816004015560a08201518160050160006101000a81548173ffffffffffffffffffffffffffffffffffffffff021916908373ffffffffffffffffffffffffffffffffffffffff160217905550905050600460003373ffffffffffffffffffffffffffffffffffffffff1673ffffffffffffffffffffffffffffffffffffffff1681526020019081526020016000206007016001549080600181540180825580915050906001820390600052602060002001600090919290919091505550505050565b600081118015610f1757506001548111155b610f2057600080fd5b610f286115ac565b600360008381526020019081526020016000206040518060c001604052908160008201548152602001600182018054600181600116156101000203166002900480601f016020809104026020016040519081016040528092919081815260200182805460018160011615610100020316600290048015610fe95780601f10610fbe57610100808354040283529160200191610fe9565b820191906000526020600020905b815481529060010190602001808311610fcc57829003601f168201915b50505050508152602001600282018054600181600116156101000203166002900480601f01602080910402602001604051908101604052809291908181526020018280546001816001161561010002031660029004801561108b5780601f106110605761010080835404028352916020019161108b565b820191906000526020600020905b81548152906001019060200180831161106e57829003601f168201915b5050505050815260200160038201548152602001600482015481526020016005820160009054906101000a900473ffffffffffffffffffffffffffffffffffffffff1673ffffffffffffffffffffffffffffffffffffffff1673ffffffffffffffffffffffffffffffffffffffff1681525050905060008160a0015190508073ffffffffffffffffffffffffffffffffffffffff166108fc349081150290604051600060405180830381858888f1935050505015801561114f573d6000803e3d6000fd5b5034826080015101826080018181525050816003600085815260200190815260200160002060008201518160000155602082015181600101908051906020019061119a9291906114df565b5060408201518160020190805190602001906111b79291906114df565b50606082015181600301556080820151816004015560a08201518160050160006101000a81548173ffffffffffffffffffffffffffffffffffffffff021916908373ffffffffffffffffffffffffffffffffffffffff160217905550905050505050565b6060600460008373ffffffffffffffffffffffffffffffffffffffff1673ffffffffffffffffffffffffffffffffffffffff1681526020019081526020016000206007018054806020026020016040519081016040528092919081815260200182805480156112a957602002820191906000526020600020905b815481526020019060010190808311611295575b50505050509050919050565b6004602052806000526040600020600091509050806000015490806001018054600181600116156101000203166002900480601f0160208091040260200160405190810160405280929190818152602001828054600181600116156101000203166002900480156113675780601f1061133c57610100808354040283529160200191611367565b820191906000526020600020905b81548152906001019060200180831161134a57829003601f168201915b505050505090806002018054600181600116156101000203166002900480601f0160208091040260200160405190810160405280929190818152602001828054600181600116156101000203166002900480156114055780601f106113da57610100808354040283529160200191611405565b820191906000526020600020905b8154815290600101906020018083116113e857829003601f168201915b505050505090806003018054600181600116156101000203166002900480601f0160208091040260200160405190810160405280929190818152602001828054600181600116156101000203166002900480156114a35780601f10611478576101008083540402835291602001916114a3565b820191906000526020600020905b81548152906001019060200180831161148657829003601f168201915b5050505050908060040154908060050154908060060160009054906101000a900473ffffffffffffffffffffffffffffffffffffffff16905087565b828054600181600116156101000203166002900490600052602060002090601f016020900481019282601f1061152057805160ff191683800117855561154e565b8280016001018555821561154e579182015b8281111561154d578251825591602001919060010190611532565b5b50905061155b91906115f8565b5090565b82805482825590600052602060002090810192821561159b579160200282015b8281111561159a57825182559160200191906001019061157f565b5b5090506115a891906115f8565b5090565b6040518060c001604052806000815260200160608152602001606081526020016000815260200160008152602001600073ffffffffffffffffffffffffffffffffffffffff1681525090565b61161a91905b808211156116165760008160009055506001016115fe565b5090565b9056fea265627a7a72315820a55b047a49c74779671304155e528232541a0ee6d2180953e830cb24a6a2adc864736f6c63430005100032",
  "source": "pragma solidity ^0.5.0;\r\n\r\ncontract Flask {\r\n    string public name;\r\n    uint256 public postCount = 0;\r\n    uint256 public userCount = 0;\r\n    mapping(uint256 => Post) public posts;\r\n    mapping(address => User) public users;\r\n\r\n    constructor() public {\r\n        name = \"Flask\";\r\n    }\r\n\r\n    struct Post {\r\n        uint256 id;\r\n        string hash;\r\n        string text;\r\n        uint256 timestamp;\r\n        uint256 tipAmount;\r\n        address payable author;\r\n    }\r\n\r\n    function uploadPost(string memory _mediaHash, string memory _text, uint256 _timestamp)\r\n        public\r\n    {\r\n        // Make sure the post hash exists\r\n        require(bytes(_mediaHash).length > 0);\r\n        // Make sure post text exists\r\n        require(bytes(_text).length > 0);\r\n        // Make sure uploader address exists\r\n        require(msg.sender != address(0));\r\n\r\n        // Increment post id\r\n        postCount++;\r\n\r\n        // Add Image to the contract\r\n        posts[postCount] = Post(\r\n            postCount,\r\n            _mediaHash,\r\n            _text,\r\n            _timestamp,\r\n            0,\r\n            msg.sender\r\n        );\r\n\r\n        users[msg.sender].ownedPosts.push(postCount);\r\n    }\r\n\r\n    function tipImageOwner(uint256 _id) public payable {\r\n        // Make sure the id is valid\r\n        require(_id > 0 && _id <= postCount);\r\n        // Fetch the post\r\n        Post memory _post = posts[_id];\r\n        // Fetch the author\r\n        address payable _author = _post.author;\r\n        // Pay the author by sending them Ether\r\n        address(_author).transfer(msg.value);\r\n        // Increment the tip amount\r\n        _post.tipAmount = _post.tipAmount + msg.value;\r\n        // Update the post\r\n        posts[_id] = _post;\r\n    }\r\n\r\n    struct User {\r\n        uint256 id;\r\n        string hash;\r\n        string name;\r\n        string bio;\r\n        uint256 birthday;\r\n        uint256 timestamp;\r\n        address payable author;\r\n        uint256[] ownedPosts;\r\n    }\r\n\r\n    function createUser(\r\n        string memory _mediaHash,\r\n        string memory _name,\r\n        string memory _bio,\r\n        uint256 _birthday,\r\n        uint256 _timestamp\r\n    ) public {\r\n        // Make sure the image hash exists\r\n        require(bytes(_mediaHash).length > 0);\r\n        // Make sure image description exists\r\n        require(bytes(_name).length > 0);\r\n        // Make sure image description exists\r\n        require(bytes(_bio).length > 0);\r\n        // Make sure uploader address exists\r\n        require(msg.sender != address(0));\r\n\r\n        // Increment user id\r\n        userCount++;\r\n\r\n        uint256[] memory _ownedPosts;\r\n\r\n        // Add User to the contract\r\n        users[msg.sender] = User(\r\n            userCount,\r\n            _mediaHash,\r\n            _name,\r\n            _bio,\r\n            _birthday,\r\n            _timestamp,\r\n            msg.sender,\r\n            _ownedPosts\r\n        );\r\n    }\r\n\r\n    function getUserPosts(address _id) external view returns (\r\n        uint256[] memory\r\n        ) {\r\n      return (\r\n          users[_id].ownedPosts\r\n          );\r\n  }\r\n}\r\n",
  "sourcePath": "C:/Users/j/Desktop/code/dephi/src/contracts/Flask.sol",
  "compiler": {
    "name": "solc",
    "version": "0.5.16+commit.9c3226ce.Emscripten.clang"
  },
  "schemaVersion": "3.4.0",
  "updatedAt": "2021-04-30T02:56:30.821Z",
  "networkType": "ethereum",
  "devdoc": {
    "methods": {}
  },
  "userdoc": {
    "methods": {}
  }
}